{
  "_format": "hh-sol-artifact-1",
  "contractName": "Domains",
  "sourceName": "contracts/Domains.sol",
  "abi": [
    {
      "inputs": [
        {
          "internalType": "string",
          "name": "_tld",
          "type": "string"
        }
      ],
      "stateMutability": "payable",
      "type": "constructor"
    },
    {
      "inputs": [],
      "name": "AlreadyRegistered",
      "type": "error"
    },
    {
      "inputs": [
        {
          "internalType": "string",
          "name": "name",
          "type": "string"
        }
      ],
      "name": "InvalidName",
      "type": "error"
    },
    {
      "inputs": [],
      "name": "Unauthorized",
      "type": "error"
    },
    {
      "anonymous": false,
      "inputs": [
        {
          "indexed": true,
          "internalType": "address",
          "name": "owner",
          "type": "address"
        },
        {
          "indexed": true,
          "internalType": "address",
          "name": "approved",
          "type": "address"
        },
        {
          "indexed": true,
          "internalType": "uint256",
          "name": "tokenId",
          "type": "uint256"
        }
      ],
      "name": "Approval",
      "type": "event"
    },
    {
      "anonymous": false,
      "inputs": [
        {
          "indexed": true,
          "internalType": "address",
          "name": "owner",
          "type": "address"
        },
        {
          "indexed": true,
          "internalType": "address",
          "name": "operator",
          "type": "address"
        },
        {
          "indexed": false,
          "internalType": "bool",
          "name": "approved",
          "type": "bool"
        }
      ],
      "name": "ApprovalForAll",
      "type": "event"
    },
    {
      "anonymous": false,
      "inputs": [
        {
          "indexed": true,
          "internalType": "address",
          "name": "from",
          "type": "address"
        },
        {
          "indexed": true,
          "internalType": "address",
          "name": "to",
          "type": "address"
        },
        {
          "indexed": true,
          "internalType": "uint256",
          "name": "tokenId",
          "type": "uint256"
        }
      ],
      "name": "Transfer",
      "type": "event"
    },
    {
      "inputs": [
        {
          "internalType": "address",
          "name": "to",
          "type": "address"
        },
        {
          "internalType": "uint256",
          "name": "tokenId",
          "type": "uint256"
        }
      ],
      "name": "approve",
      "outputs": [],
      "stateMutability": "nonpayable",
      "type": "function"
    },
    {
      "inputs": [
        {
          "internalType": "address",
          "name": "owner",
          "type": "address"
        }
      ],
      "name": "balanceOf",
      "outputs": [
        {
          "internalType": "uint256",
          "name": "",
          "type": "uint256"
        }
      ],
      "stateMutability": "view",
      "type": "function"
    },
    {
      "inputs": [
        {
          "internalType": "string",
          "name": "",
          "type": "string"
        }
      ],
      "name": "domains",
      "outputs": [
        {
          "internalType": "address",
          "name": "",
          "type": "address"
        }
      ],
      "stateMutability": "view",
      "type": "function"
    },
    {
      "inputs": [
        {
          "internalType": "string",
          "name": "name",
          "type": "string"
        }
      ],
      "name": "getAddress",
      "outputs": [
        {
          "internalType": "address",
          "name": "",
          "type": "address"
        }
      ],
      "stateMutability": "view",
      "type": "function"
    },
    {
      "inputs": [],
      "name": "getAllNames",
      "outputs": [
        {
          "internalType": "string[]",
          "name": "",
          "type": "string[]"
        }
      ],
      "stateMutability": "view",
      "type": "function"
    },
    {
      "inputs": [
        {
          "internalType": "uint256",
          "name": "tokenId",
          "type": "uint256"
        }
      ],
      "name": "getApproved",
      "outputs": [
        {
          "internalType": "address",
          "name": "",
          "type": "address"
        }
      ],
      "stateMutability": "view",
      "type": "function"
    },
    {
      "inputs": [
        {
          "internalType": "address",
          "name": "owner",
          "type": "address"
        },
        {
          "internalType": "address",
          "name": "operator",
          "type": "address"
        }
      ],
      "name": "isApprovedForAll",
      "outputs": [
        {
          "internalType": "bool",
          "name": "",
          "type": "bool"
        }
      ],
      "stateMutability": "view",
      "type": "function"
    },
    {
      "inputs": [],
      "name": "name",
      "outputs": [
        {
          "internalType": "string",
          "name": "",
          "type": "string"
        }
      ],
      "stateMutability": "view",
      "type": "function"
    },
    {
      "inputs": [
        {
          "internalType": "uint256",
          "name": "",
          "type": "uint256"
        }
      ],
      "name": "names",
      "outputs": [
        {
          "internalType": "string",
          "name": "",
          "type": "string"
        }
      ],
      "stateMutability": "view",
      "type": "function"
    },
    {
      "inputs": [],
      "name": "owner",
      "outputs": [
        {
          "internalType": "address payable",
          "name": "",
          "type": "address"
        }
      ],
      "stateMutability": "view",
      "type": "function"
    },
    {
      "inputs": [
        {
          "internalType": "uint256",
          "name": "tokenId",
          "type": "uint256"
        }
      ],
      "name": "ownerOf",
      "outputs": [
        {
          "internalType": "address",
          "name": "",
          "type": "address"
        }
      ],
      "stateMutability": "view",
      "type": "function"
    },
    {
      "inputs": [
        {
          "internalType": "string",
          "name": "name",
          "type": "string"
        }
      ],
      "name": "price",
      "outputs": [
        {
          "internalType": "uint256",
          "name": "",
          "type": "uint256"
        }
      ],
      "stateMutability": "pure",
      "type": "function"
    },
    {
      "inputs": [
        {
          "internalType": "string",
          "name": "",
          "type": "string"
        }
      ],
      "name": "records",
      "outputs": [
        {
          "internalType": "string",
          "name": "",
          "type": "string"
        }
      ],
      "stateMutability": "view",
      "type": "function"
    },
    {
      "inputs": [
        {
          "internalType": "string",
          "name": "name",
          "type": "string"
        }
      ],
      "name": "registerDomain",
      "outputs": [],
      "stateMutability": "payable",
      "type": "function"
    },
    {
      "inputs": [
        {
          "internalType": "address",
          "name": "from",
          "type": "address"
        },
        {
          "internalType": "address",
          "name": "to",
          "type": "address"
        },
        {
          "internalType": "uint256",
          "name": "tokenId",
          "type": "uint256"
        }
      ],
      "name": "safeTransferFrom",
      "outputs": [],
      "stateMutability": "nonpayable",
      "type": "function"
    },
    {
      "inputs": [
        {
          "internalType": "address",
          "name": "from",
          "type": "address"
        },
        {
          "internalType": "address",
          "name": "to",
          "type": "address"
        },
        {
          "internalType": "uint256",
          "name": "tokenId",
          "type": "uint256"
        },
        {
          "internalType": "bytes",
          "name": "_data",
          "type": "bytes"
        }
      ],
      "name": "safeTransferFrom",
      "outputs": [],
      "stateMutability": "nonpayable",
      "type": "function"
    },
    {
      "inputs": [
        {
          "internalType": "address",
          "name": "operator",
          "type": "address"
        },
        {
          "internalType": "bool",
          "name": "approved",
          "type": "bool"
        }
      ],
      "name": "setApprovalForAll",
      "outputs": [],
      "stateMutability": "nonpayable",
      "type": "function"
    },
    {
      "inputs": [
        {
          "internalType": "string",
          "name": "name",
          "type": "string"
        },
        {
          "internalType": "string",
          "name": "record",
          "type": "string"
        }
      ],
      "name": "setRecord",
      "outputs": [],
      "stateMutability": "nonpayable",
      "type": "function"
    },
    {
      "inputs": [
        {
          "internalType": "bytes4",
          "name": "interfaceId",
          "type": "bytes4"
        }
      ],
      "name": "supportsInterface",
      "outputs": [
        {
          "internalType": "bool",
          "name": "",
          "type": "bool"
        }
      ],
      "stateMutability": "view",
      "type": "function"
    },
    {
      "inputs": [],
      "name": "symbol",
      "outputs": [
        {
          "internalType": "string",
          "name": "",
          "type": "string"
        }
      ],
      "stateMutability": "view",
      "type": "function"
    },
    {
      "inputs": [],
      "name": "tld",
      "outputs": [
        {
          "internalType": "string",
          "name": "",
          "type": "string"
        }
      ],
      "stateMutability": "view",
      "type": "function"
    },
    {
      "inputs": [
        {
          "internalType": "uint256",
          "name": "tokenId",
          "type": "uint256"
        }
      ],
      "name": "tokenURI",
      "outputs": [
        {
          "internalType": "string",
          "name": "",
          "type": "string"
        }
      ],
      "stateMutability": "view",
      "type": "function"
    },
    {
      "inputs": [
        {
          "internalType": "address",
          "name": "from",
          "type": "address"
        },
        {
          "internalType": "address",
          "name": "to",
          "type": "address"
        },
        {
          "internalType": "uint256",
          "name": "tokenId",
          "type": "uint256"
        }
      ],
      "name": "transferFrom",
      "outputs": [],
      "stateMutability": "nonpayable",
      "type": "function"
    },
    {
      "inputs": [
        {
          "internalType": "string",
          "name": "name",
          "type": "string"
        }
      ],
      "name": "valid",
      "outputs": [
        {
          "internalType": "bool",
          "name": "",
          "type": "bool"
        }
      ],
      "stateMutability": "pure",
      "type": "function"
    },
    {
      "inputs": [],
      "name": "withdraw",
      "outputs": [],
      "stateMutability": "nonpayable",
      "type": "function"
    }
  ],
  "bytecode": "0x608060405260405180610760016040528061073e81526020016200521061073e9139600d9080519060200190620000389291906200035a565b506040518060400160405280600d81526020017f3c2f746578743e3c2f7376673e00000000000000000000000000000000000000815250600e9080519060200190620000869291906200035a565b506040516200594e3803806200594e8339818101604052810190620000ac91906200047c565b6040518060400160405280601281526020017f4379626572204e616d65205365727669636500000000000000000000000000008152506040518060400160405280600381526020017f434e5300000000000000000000000000000000000000000000000000000000008152508160009080519060200190620001309291906200035a565b508060019080519060200190620001499291906200035a565b50505033600b60006101000a81548173ffffffffffffffffffffffffffffffffffffffff021916908373ffffffffffffffffffffffffffffffffffffffff16021790555080600c9080519060200190620001a59291906200035a565b50620002846040518060400160405280600781526020017f544c442069733a00000000000000000000000000000000000000000000000000815250600c8054620001ef90620005ee565b80601f01602080910402602001604051908101604052809291908181526020018280546200021d90620005ee565b80156200026e5780601f1062000242576101008083540402835291602001916200026e565b820191906000526020600020905b8154815290600101906020018083116200025057829003601f168201915b50505050506200028b60201b62001a461760201c565b50620006c9565b6200032d8282604051602401620002a492919062000502565b6040516020818303038152906040527f4b5c4277000000000000000000000000000000000000000000000000000000007bffffffffffffffffffffffffffffffffffffffffffffffffffffffff19166020820180517bffffffffffffffffffffffffffffffffffffffffffffffffffffffff83818316178352505050506200033160201b60201c565b5050565b60008151905060006a636f6e736f6c652e6c6f679050602083016000808483855afa5050505050565b8280546200036890620005ee565b90600052602060002090601f0160209004810192826200038c5760008555620003d8565b82601f10620003a757805160ff1916838001178555620003d8565b82800160010185558215620003d8579182015b82811115620003d7578251825591602001919060010190620003ba565b5b509050620003e79190620003eb565b5090565b5b8082111562000406576000816000905550600101620003ec565b5090565b6000620004216200041b8462000566565b6200053d565b9050828152602081018484840111156200043a57600080fd5b62000447848285620005b8565b509392505050565b600082601f8301126200046157600080fd5b8151620004738482602086016200040a565b91505092915050565b6000602082840312156200048f57600080fd5b600082015167ffffffffffffffff811115620004aa57600080fd5b620004b8848285016200044f565b91505092915050565b6000620004ce826200059c565b620004da8185620005a7565b9350620004ec818560208601620005b8565b620004f781620006b8565b840191505092915050565b600060408201905081810360008301526200051e8185620004c1565b90508181036020830152620005348184620004c1565b90509392505050565b6000620005496200055c565b905062000557828262000624565b919050565b6000604051905090565b600067ffffffffffffffff82111562000584576200058362000689565b5b6200058f82620006b8565b9050602081019050919050565b600081519050919050565b600082825260208201905092915050565b60005b83811015620005d8578082015181840152602081019050620005bb565b83811115620005e8576000848401525b50505050565b600060028204905060018216806200060757607f821691505b602082108114156200061e576200061d6200065a565b5b50919050565b6200062f82620006b8565b810181811067ffffffffffffffff8211171562000651576200065062000689565b5b80604052505050565b7f4e487b7100000000000000000000000000000000000000000000000000000000600052602260045260246000fd5b7f4e487b7100000000000000000000000000000000000000000000000000000000600052604160045260246000fd5b6000601f19601f8301169050919050565b614b3780620006d96000396000f3fe6080604052600436106101665760003560e01c806370a08231116100d1578063b88d4fde1161008a578063c87b56dd11610064578063c87b56dd14610565578063e985e9c5146105a2578063fb825e5f146105df578063fe2c61981461060a57610166565b8063b88d4fde146104d6578063bf40fac1146104ff578063c1880a981461053c57610166565b806370a08231146103c15780638da5cb5b146103fe57806395d89b41146104295780639791c09714610454578063a22cb46514610491578063a5cad08a146104ba57610166565b80632d551432116101235780632d5514321461029f5780633ccfd60b146102ca57806342842e0e146102e15780634622ab031461030a578063541e771d146103475780636352211e1461038457610166565b806301ffc9a71461016b57806306fdde03146101a8578063081812fc146101d3578063095ea7b31461021057806323b872dd146102395780632644923514610262575b600080fd5b34801561017757600080fd5b50610192600480360381019061018d91906131f1565b610647565b60405161019f9190613b3e565b60405180910390f35b3480156101b457600080fd5b506101bd610729565b6040516101ca9190613b7d565b60405180910390f35b3480156101df57600080fd5b506101fa60048036038101906101f5919061333e565b6107bb565b6040516102079190613a9a565b60405180910390f35b34801561021c57600080fd5b50610237600480360381019061023291906131b5565b610840565b005b34801561024557600080fd5b50610260600480360381019061025b91906130af565b610958565b005b34801561026e57600080fd5b50610289600480360381019061028491906132fd565b6109b8565b6040516102969190613a9a565b60405180910390f35b3480156102ab57600080fd5b506102b4610a01565b6040516102c19190613b7d565b60405180910390f35b3480156102d657600080fd5b506102df610a8f565b005b3480156102ed57600080fd5b50610308600480360381019061030391906130af565b610bd4565b005b34801561031657600080fd5b50610331600480360381019061032c919061333e565b610bf4565b60405161033e9190613b7d565b60405180910390f35b34801561035357600080fd5b5061036e600480360381019061036991906132fd565b610c94565b60405161037b9190613b7d565b60405180910390f35b34801561039057600080fd5b506103ab60048036038101906103a6919061333e565b610d4a565b6040516103b89190613a9a565b60405180910390f35b3480156103cd57600080fd5b506103e860048036038101906103e3919061304a565b610dfc565b6040516103f59190613e90565b60405180910390f35b34801561040a57600080fd5b50610413610eb4565b6040516104209190613ab5565b60405180910390f35b34801561043557600080fd5b5061043e610eda565b60405161044b9190613b7d565b60405180910390f35b34801561046057600080fd5b5061047b60048036038101906104769190613243565b610f6c565b6040516104889190613b3e565b60405180910390f35b34801561049d57600080fd5b506104b860048036038101906104b39190613179565b611020565b005b6104d460048036038101906104cf9190613243565b611036565b005b3480156104e257600080fd5b506104fd60048036038101906104f891906130fe565b61146f565b005b34801561050b57600080fd5b5061052660048036038101906105219190613243565b6114d1565b6040516105339190613a9a565b60405180910390f35b34801561054857600080fd5b50610563600480360381019061055e9190613288565b61151c565b005b34801561057157600080fd5b5061058c6004803603810190610587919061333e565b6115f7565b6040516105999190613b7d565b60405180910390f35b3480156105ae57600080fd5b506105c960048036038101906105c49190613073565b611749565b6040516105d69190613b3e565b60405180910390f35b3480156105eb57600080fd5b506105f46117dd565b6040516106019190613b1c565b60405180910390f35b34801561061657600080fd5b50610631600480360381019061062c9190613243565b6119ad565b60405161063e9190613e90565b60405180910390f35b60007f80ac58cd000000000000000000000000000000000000000000000000000000007bffffffffffffffffffffffffffffffffffffffffffffffffffffffff1916827bffffffffffffffffffffffffffffffffffffffffffffffffffffffff1916148061071257507f5b5e139f000000000000000000000000000000000000000000000000000000007bffffffffffffffffffffffffffffffffffffffffffffffffffffffff1916827bffffffffffffffffffffffffffffffffffffffffffffffffffffffff1916145b80610722575061072182611ae2565b5b9050919050565b606060008054610738906141bc565b80601f0160208091040260200160405190810160405280929190818152602001828054610764906141bc565b80156107b15780601f10610786576101008083540402835291602001916107b1565b820191906000526020600020905b81548152906001019060200180831161079457829003601f168201915b5050505050905090565b60006107c682611b4c565b610805576040517f08c379a00000000000000000000000000000000000000000000000000000000081526004016107fc90613e10565b60405180910390fd5b6004600083815260200190815260200160002060009054906101000a900473ffffffffffffffffffffffffffffffffffffffff169050919050565b600061084b82610d4a565b90508073ffffffffffffffffffffffffffffffffffffffff168373ffffffffffffffffffffffffffffffffffffffff1614156108bc576040517f08c379a00000000000000000000000000000000000000000000000000000000081526004016108b390613e50565b60405180910390fd5b8073ffffffffffffffffffffffffffffffffffffffff166108db611bb8565b73ffffffffffffffffffffffffffffffffffffffff16148061090a575061090981610904611bb8565b611749565b5b610949576040517f08c379a000000000000000000000000000000000000000000000000000000000815260040161094090613d30565b60405180910390fd5b6109538383611bc0565b505050565b610969610963611bb8565b82611c79565b6109a8576040517f08c379a000000000000000000000000000000000000000000000000000000000815260040161099f90613e70565b60405180910390fd5b6109b3838383611d57565b505050565b6008818051602081018201805184825260208301602085012081835280955050505050506000915054906101000a900473ffffffffffffffffffffffffffffffffffffffff1681565b600c8054610a0e906141bc565b80601f0160208091040260200160405190810160405280929190818152602001828054610a3a906141bc565b8015610a875780601f10610a5c57610100808354040283529160200191610a87565b820191906000526020600020905b815481529060010190602001808311610a6a57829003601f168201915b505050505081565b600b60009054906101000a900473ffffffffffffffffffffffffffffffffffffffff1673ffffffffffffffffffffffffffffffffffffffff163373ffffffffffffffffffffffffffffffffffffffff1614610b1f576040517f08c379a0000000000000000000000000000000000000000000000000000000008152600401610b1690613db0565b60405180910390fd5b600047905060003373ffffffffffffffffffffffffffffffffffffffff1682604051610b4a90613a85565b60006040518083038185875af1925050503d8060008114610b87576040519150601f19603f3d011682016040523d82523d6000602084013e610b8c565b606091505b5050905080610bd0576040517f08c379a0000000000000000000000000000000000000000000000000000000008152600401610bc790613cf0565b60405180910390fd5b5050565b610bef8383836040518060200160405280600081525061146f565b505050565b600a6020528060005260406000206000915090508054610c13906141bc565b80601f0160208091040260200160405190810160405280929190818152602001828054610c3f906141bc565b8015610c8c5780601f10610c6157610100808354040283529160200191610c8c565b820191906000526020600020905b815481529060010190602001808311610c6f57829003601f168201915b505050505081565b6009818051602081018201805184825260208301602085012081835280955050505050506000915090508054610cc9906141bc565b80601f0160208091040260200160405190810160405280929190818152602001828054610cf5906141bc565b8015610d425780601f10610d1757610100808354040283529160200191610d42565b820191906000526020600020905b815481529060010190602001808311610d2557829003601f168201915b505050505081565b6000806002600084815260200190815260200160002060009054906101000a900473ffffffffffffffffffffffffffffffffffffffff169050600073ffffffffffffffffffffffffffffffffffffffff168173ffffffffffffffffffffffffffffffffffffffff161415610df3576040517f08c379a0000000000000000000000000000000000000000000000000000000008152600401610dea90613d70565b60405180910390fd5b80915050919050565b60008073ffffffffffffffffffffffffffffffffffffffff168273ffffffffffffffffffffffffffffffffffffffff161415610e6d576040517f08c379a0000000000000000000000000000000000000000000000000000000008152600401610e6490613d50565b60405180910390fd5b600360008373ffffffffffffffffffffffffffffffffffffffff1673ffffffffffffffffffffffffffffffffffffffff168152602001908152602001600020549050919050565b600b60009054906101000a900473ffffffffffffffffffffffffffffffffffffffff1681565b606060018054610ee9906141bc565b80601f0160208091040260200160405190810160405280929190818152602001828054610f15906141bc565b8015610f625780601f10610f3757610100808354040283529160200191610f62565b820191906000526020600020905b815481529060010190602001808311610f4557829003601f168201915b5050505050905090565b60006003610fbd84848080601f016020809104026020016040519081016040528093929190818152602001838380828437600081840152601f19601f82011690508083019250505050505050611fbe565b101580156110185750600a61101584848080601f016020809104026020016040519081016040528093929190818152602001838380828437600081840152601f19601f82011690508083019250505050505050611fbe565b11155b905092915050565b61103261102b611bb8565b8383612199565b5050565b600073ffffffffffffffffffffffffffffffffffffffff1660088383604051611060929190613967565b908152602001604051809103902060009054906101000a900473ffffffffffffffffffffffffffffffffffffffff1673ffffffffffffffffffffffffffffffffffffffff16146110dc576040517f3a81d6fc00000000000000000000000000000000000000000000000000000000815260040160405180910390fd5b6110e68282610f6c565b6111295781816040517f7f19f48d000000000000000000000000000000000000000000000000000000008152600401611120929190613b59565b60405180910390fd5b600061113583836119ad565b9050803411611179576040517f08c379a000000000000000000000000000000000000000000000000000000000815260040161117090613c30565b60405180910390fd5b60008383600c60405160200161119193929190613980565b60405160208183030381529060405290506000600d82600e6040516020016111bb939291906139d5565b604051602081830303815290604052905060006111d86007612306565b905060006111e584611fbe565b905060006111f282612314565b9050600061122a86611203876124c1565b8460405160200161121693929190613a06565b6040516020818303038152906040526124c1565b905060008160405160200161123f9190613a63565b6040516020818303038152906040529050611271604051806060016040528060398152602001614a506039913961267f565b6112b06040518060400160405280600e81526020017f46696e616c20746f6b656e55524900000000000000000000000000000000000081525082611a46565b6112d1604051806060016040528060398152602001614a896039913961267f565b6112db3386612718565b6112e58582612736565b3360088b8b6040516112f8929190613967565b908152602001604051809103902060006101000a81548173ffffffffffffffffffffffffffffffffffffffff021916908373ffffffffffffffffffffffffffffffffffffffff16021790555061134e60076127aa565b8989600a60008881526020019081526020016000209190611370929190612d9e565b50611463604051806060016040528060298152602001614a2760299139338c8c8080601f016020809104026020016040519081016040528093929190818152602001838380828437600081840152601f19601f82011690508083019250505050505050600c80546113e0906141bc565b80601f016020809104026020016040519081016040528092919081815260200182805461140c906141bc565b80156114595780601f1061142e57610100808354040283529160200191611459565b820191906000526020600020905b81548152906001019060200180831161143c57829003601f168201915b50505050506127c0565b50505050505050505050565b61148061147a611bb8565b83611c79565b6114bf576040517f08c379a00000000000000000000000000000000000000000000000000000000081526004016114b690613e70565b60405180910390fd5b6114cb84848484612862565b50505050565b6000600883836040516114e5929190613967565b908152602001604051809103902060009054906101000a900473ffffffffffffffffffffffffffffffffffffffff16905092915050565b3373ffffffffffffffffffffffffffffffffffffffff1660088585604051611545929190613967565b908152602001604051809103902060009054906101000a900473ffffffffffffffffffffffffffffffffffffffff1673ffffffffffffffffffffffffffffffffffffffff16146115c1576040517f82b4290000000000000000000000000000000000000000000000000000000000815260040160405180910390fd5b8181600986866040516115d5929190613967565b908152602001604051809103902091906115f0929190612d9e565b5050505050565b606061160282611b4c565b611641576040517f08c379a000000000000000000000000000000000000000000000000000000000815260040161163890613df0565b60405180910390fd5b6000600660008481526020019081526020016000208054611661906141bc565b80601f016020809104026020016040519081016040528092919081815260200182805461168d906141bc565b80156116da5780601f106116af576101008083540402835291602001916116da565b820191906000526020600020905b8154815290600101906020018083116116bd57829003601f168201915b5050505050905060006116eb6128be565b9050600081511415611701578192505050611744565b60008251111561173657808260405160200161171e9291906139b1565b60405160208183030381529060405292505050611744565b61173f846128d5565b925050505b919050565b6000600560008473ffffffffffffffffffffffffffffffffffffffff1673ffffffffffffffffffffffffffffffffffffffff16815260200190815260200160002060008373ffffffffffffffffffffffffffffffffffffffff1673ffffffffffffffffffffffffffffffffffffffff16815260200190815260200160002060009054906101000a900460ff16905092915050565b606061181d6040518060400160405280601581526020017f67657474696e6720616c6c206e616d65732e2e2e2e000000000000000000000081525061267f565b60006118296007612306565b67ffffffffffffffff811115611868577f4e487b7100000000000000000000000000000000000000000000000000000000600052604160045260246000fd5b60405190808252806020026020018201604052801561189b57816020015b60608152602001906001900390816118865790505b50905060005b6118ab6007612306565b8110156119a557600a600082815260200190815260200160002080546118d0906141bc565b80601f01602080910402602001604051908101604052809291908181526020018280546118fc906141bc565b80156119495780601f1061191e57610100808354040283529160200191611949565b820191906000526020600020905b81548152906001019060200180831161192c57829003601f168201915b5050505050828281518110611987577f4e487b7100000000000000000000000000000000000000000000000000000000600052603260045260246000fd5b6020026020010181905250808061199d9061421f565b9150506118a1565b508091505090565b6000806119fd84848080601f016020809104026020016040519081016040528093929190818152602001838380828437600081840152601f19601f82011690508083019250505050505050611fbe565b90506003811415611a1957670429d069189e0000915050611a40565b6004811415611a33576702c68af0bb140000915050611a40565b67016345785d8a00009150505b92915050565b611ade8282604051602401611a5c929190613bf9565b6040516020818303038152906040527f4b5c4277000000000000000000000000000000000000000000000000000000007bffffffffffffffffffffffffffffffffffffffffffffffffffffffff19166020820180517bffffffffffffffffffffffffffffffffffffffffffffffffffffffff838183161783525050505061297c565b5050565b60007f01ffc9a7000000000000000000000000000000000000000000000000000000007bffffffffffffffffffffffffffffffffffffffffffffffffffffffff1916827bffffffffffffffffffffffffffffffffffffffffffffffffffffffff1916149050919050565b60008073ffffffffffffffffffffffffffffffffffffffff166002600084815260200190815260200160002060009054906101000a900473ffffffffffffffffffffffffffffffffffffffff1673ffffffffffffffffffffffffffffffffffffffff1614159050919050565b600033905090565b816004600083815260200190815260200160002060006101000a81548173ffffffffffffffffffffffffffffffffffffffff021916908373ffffffffffffffffffffffffffffffffffffffff160217905550808273ffffffffffffffffffffffffffffffffffffffff16611c3383610d4a565b73ffffffffffffffffffffffffffffffffffffffff167f8c5be1e5ebec7d5bd14f71427d1e84f3dd0314c0f7b2291e5b200ac8c7c3b92560405160405180910390a45050565b6000611c8482611b4c565b611cc3576040517f08c379a0000000000000000000000000000000000000000000000000000000008152600401611cba90613d10565b60405180910390fd5b6000611cce83610d4a565b90508073ffffffffffffffffffffffffffffffffffffffff168473ffffffffffffffffffffffffffffffffffffffff161480611d3d57508373ffffffffffffffffffffffffffffffffffffffff16611d25846107bb565b73ffffffffffffffffffffffffffffffffffffffff16145b80611d4e5750611d4d8185611749565b5b91505092915050565b8273ffffffffffffffffffffffffffffffffffffffff16611d7782610d4a565b73ffffffffffffffffffffffffffffffffffffffff1614611dcd576040517f08c379a0000000000000000000000000000000000000000000000000000000008152600401611dc490613c70565b60405180910390fd5b600073ffffffffffffffffffffffffffffffffffffffff168273ffffffffffffffffffffffffffffffffffffffff161415611e3d576040517f08c379a0000000000000000000000000000000000000000000000000000000008152600401611e3490613cb0565b60405180910390fd5b611e488383836129a5565b611e53600082611bc0565b6001600360008573ffffffffffffffffffffffffffffffffffffffff1673ffffffffffffffffffffffffffffffffffffffff1681526020019081526020016000206000828254611ea391906140c0565b925050819055506001600360008473ffffffffffffffffffffffffffffffffffffffff1673ffffffffffffffffffffffffffffffffffffffff1681526020019081526020016000206000828254611efa9190613fdf565b92505081905550816002600083815260200190815260200160002060006101000a81548173ffffffffffffffffffffffffffffffffffffffff021916908373ffffffffffffffffffffffffffffffffffffffff160217905550808273ffffffffffffffffffffffffffffffffffffffff168473ffffffffffffffffffffffffffffffffffffffff167fddf252ad1be2c89b69c2b068fc378daa952ba7f163c4a11628f55a4df523b3ef60405160405180910390a4611fb98383836129aa565b505050565b60008060008084519050600092505b8082101561218e576000858381518110612010577f4e487b7100000000000000000000000000000000000000000000000000000000600052603260045260246000fd5b602001015160f81c60f81b9050608060f81b817effffffffffffffffffffffffffffffffffffffffffffffffffffffffffffff1916101561205f576001836120589190613fdf565b925061217a565b60e060f81b817effffffffffffffffffffffffffffffffffffffffffffffffffffffffffffff191610156120a15760028361209a9190613fdf565b9250612179565b60f060f81b817effffffffffffffffffffffffffffffffffffffffffffffffffffffffffffff191610156120e3576003836120dc9190613fdf565b9250612178565b60f8801b817effffffffffffffffffffffffffffffffffffffffffffffffffffffffffffff191610156121245760048361211d9190613fdf565b9250612177565b60fc60f81b817effffffffffffffffffffffffffffffffffffffffffffffffffffffffffffff191610156121665760058361215f9190613fdf565b9250612176565b6006836121739190613fdf565b92505b5b5b5b5b5082806121869061421f565b935050611fcd565b829350505050919050565b8173ffffffffffffffffffffffffffffffffffffffff168373ffffffffffffffffffffffffffffffffffffffff161415612208576040517f08c379a00000000000000000000000000000000000000000000000000000000081526004016121ff90613cd0565b60405180910390fd5b80600560008573ffffffffffffffffffffffffffffffffffffffff1673ffffffffffffffffffffffffffffffffffffffff16815260200190815260200160002060008473ffffffffffffffffffffffffffffffffffffffff1673ffffffffffffffffffffffffffffffffffffffff16815260200190815260200160002060006101000a81548160ff0219169083151502179055508173ffffffffffffffffffffffffffffffffffffffff168373ffffffffffffffffffffffffffffffffffffffff167f17307eab39ab6107e8899845ad3d59bd9653f200f220920489ca2b5937696c31836040516122f99190613b3e565b60405180910390a3505050565b600081600001549050919050565b6060600082141561235c576040518060400160405280600181526020017f300000000000000000000000000000000000000000000000000000000000000081525090506124bc565b600082905060005b6000821461238e5780806123779061421f565b915050600a826123879190614035565b9150612364565b60008167ffffffffffffffff8111156123d0577f4e487b7100000000000000000000000000000000000000000000000000000000600052604160045260246000fd5b6040519080825280601f01601f1916602001820160405280156124025781602001600182028036833780820191505090505b5090505b600085146124b55760018261241b91906140c0565b9150600a8561242a9190614268565b60306124369190613fdf565b60f81b818381518110612472577f4e487b7100000000000000000000000000000000000000000000000000000000600052603260045260246000fd5b60200101907effffffffffffffffffffffffffffffffffffffffffffffffffffffffffffff1916908160001a905350600a856124ae9190614035565b9450612406565b8093505050505b919050565b606060008251905060008114156124ea576040518060200160405280600081525091505061267a565b600060036002836124fb9190613fdf565b6125059190614035565b60046125119190614066565b905060006020826125229190613fdf565b67ffffffffffffffff811115612561577f4e487b7100000000000000000000000000000000000000000000000000000000600052604160045260246000fd5b6040519080825280601f01601f1916602001820160405280156125935781602001600182028036833780820191505090505b5090506000604051806060016040528060408152602001614ac2604091399050600181016020830160005b868110156126375760038101905062ffffff818a015116603f8160121c168401518060081b905060ff603f83600c1c1686015116810190508060081b905060ff603f8360061c1686015116810190508060081b905060ff603f831686015116810190508060e01b905080845260048401935050506125be565b50600386066001811461265157600281146126615761266c565b613d3d60f01b600283035261266c565b603d60f81b60018303525b508484525050819450505050505b919050565b612715816040516024016126939190613b7d565b6040516020818303038152906040527f41304fac000000000000000000000000000000000000000000000000000000007bffffffffffffffffffffffffffffffffffffffffffffffffffffffff19166020820180517bffffffffffffffffffffffffffffffffffffffffffffffffffffffff838183161783525050505061297c565b50565b6127328282604051806020016040528060008152506129af565b5050565b61273f82611b4c565b61277e576040517f08c379a000000000000000000000000000000000000000000000000000000000815260040161277590613d90565b60405180910390fd5b806006600084815260200190815260200160002090805190602001906127a5929190612e24565b505050565b6001816000016000828254019250508190555050565b61285c848484846040516024016127da9493929190613b9f565b6040516020818303038152906040527f245986f2000000000000000000000000000000000000000000000000000000007bffffffffffffffffffffffffffffffffffffffffffffffffffffffff19166020820180517bffffffffffffffffffffffffffffffffffffffffffffffffffffffff838183161783525050505061297c565b50505050565b61286d848484611d57565b61287984848484612a0a565b6128b8576040517f08c379a00000000000000000000000000000000000000000000000000000000081526004016128af90613c50565b60405180910390fd5b50505050565b606060405180602001604052806000815250905090565b60606128e082611b4c565b61291f576040517f08c379a000000000000000000000000000000000000000000000000000000000815260040161291690613e30565b60405180910390fd5b60006129296128be565b905060008151116129495760405180602001604052806000815250612974565b8061295384612314565b6040516020016129649291906139b1565b6040516020818303038152906040525b915050919050565b60008151905060006a636f6e736f6c652e6c6f679050602083016000808483855afa5050505050565b505050565b505050565b6129b98383612ba1565b6129c66000848484612a0a565b612a05576040517f08c379a00000000000000000000000000000000000000000000000000000000081526004016129fc90613c50565b60405180910390fd5b505050565b6000612a2b8473ffffffffffffffffffffffffffffffffffffffff16612d7b565b15612b94578373ffffffffffffffffffffffffffffffffffffffff1663150b7a02612a54611bb8565b8786866040518563ffffffff1660e01b8152600401612a769493929190613ad0565b602060405180830381600087803b158015612a9057600080fd5b505af1925050508015612ac157506040513d601f19601f82011682018060405250810190612abe919061321a565b60015b612b44573d8060008114612af1576040519150601f19603f3d011682016040523d82523d6000602084013e612af6565b606091505b50600081511415612b3c576040517f08c379a0000000000000000000000000000000000000000000000000000000008152600401612b3390613c50565b60405180910390fd5b805181602001fd5b63150b7a0260e01b7bffffffffffffffffffffffffffffffffffffffffffffffffffffffff1916817bffffffffffffffffffffffffffffffffffffffffffffffffffffffff191614915050612b99565b600190505b949350505050565b600073ffffffffffffffffffffffffffffffffffffffff168273ffffffffffffffffffffffffffffffffffffffff161415612c11576040517f08c379a0000000000000000000000000000000000000000000000000000000008152600401612c0890613dd0565b60405180910390fd5b612c1a81611b4c565b15612c5a576040517f08c379a0000000000000000000000000000000000000000000000000000000008152600401612c5190613c90565b60405180910390fd5b612c66600083836129a5565b6001600360008473ffffffffffffffffffffffffffffffffffffffff1673ffffffffffffffffffffffffffffffffffffffff1681526020019081526020016000206000828254612cb69190613fdf565b92505081905550816002600083815260200190815260200160002060006101000a81548173ffffffffffffffffffffffffffffffffffffffff021916908373ffffffffffffffffffffffffffffffffffffffff160217905550808273ffffffffffffffffffffffffffffffffffffffff16600073ffffffffffffffffffffffffffffffffffffffff167fddf252ad1be2c89b69c2b068fc378daa952ba7f163c4a11628f55a4df523b3ef60405160405180910390a4612d77600083836129aa565b5050565b6000808273ffffffffffffffffffffffffffffffffffffffff163b119050919050565b828054612daa906141bc565b90600052602060002090601f016020900481019282612dcc5760008555612e13565b82601f10612de557803560ff1916838001178555612e13565b82800160010185558215612e13579182015b82811115612e12578235825591602001919060010190612df7565b5b509050612e209190612eaa565b5090565b828054612e30906141bc565b90600052602060002090601f016020900481019282612e525760008555612e99565b82601f10612e6b57805160ff1916838001178555612e99565b82800160010185558215612e99579182015b82811115612e98578251825591602001919060010190612e7d565b5b509050612ea69190612eaa565b5090565b5b80821115612ec3576000816000905550600101612eab565b5090565b6000612eda612ed584613ed0565b613eab565b905082815260208101848484011115612ef257600080fd5b612efd84828561417a565b509392505050565b6000612f18612f1384613f01565b613eab565b905082815260208101848484011115612f3057600080fd5b612f3b84828561417a565b509392505050565b600081359050612f52816149ca565b92915050565b600081359050612f67816149e1565b92915050565b600081359050612f7c816149f8565b92915050565b600081519050612f91816149f8565b92915050565b600082601f830112612fa857600080fd5b8135612fb8848260208601612ec7565b91505092915050565b60008083601f840112612fd357600080fd5b8235905067ffffffffffffffff811115612fec57600080fd5b60208301915083600182028301111561300457600080fd5b9250929050565b600082601f83011261301c57600080fd5b813561302c848260208601612f05565b91505092915050565b60008135905061304481614a0f565b92915050565b60006020828403121561305c57600080fd5b600061306a84828501612f43565b91505092915050565b6000806040838503121561308657600080fd5b600061309485828601612f43565b92505060206130a585828601612f43565b9150509250929050565b6000806000606084860312156130c457600080fd5b60006130d286828701612f43565b93505060206130e386828701612f43565b92505060406130f486828701613035565b9150509250925092565b6000806000806080858703121561311457600080fd5b600061312287828801612f43565b945050602061313387828801612f43565b935050604061314487828801613035565b925050606085013567ffffffffffffffff81111561316157600080fd5b61316d87828801612f97565b91505092959194509250565b6000806040838503121561318c57600080fd5b600061319a85828601612f43565b92505060206131ab85828601612f58565b9150509250929050565b600080604083850312156131c857600080fd5b60006131d685828601612f43565b92505060206131e785828601613035565b9150509250929050565b60006020828403121561320357600080fd5b600061321184828501612f6d565b91505092915050565b60006020828403121561322c57600080fd5b600061323a84828501612f82565b91505092915050565b6000806020838503121561325657600080fd5b600083013567ffffffffffffffff81111561327057600080fd5b61327c85828601612fc1565b92509250509250929050565b6000806000806040858703121561329e57600080fd5b600085013567ffffffffffffffff8111156132b857600080fd5b6132c487828801612fc1565b9450945050602085013567ffffffffffffffff8111156132e357600080fd5b6132ef87828801612fc1565b925092505092959194509250565b60006020828403121561330f57600080fd5b600082013567ffffffffffffffff81111561332957600080fd5b6133358482850161300b565b91505092915050565b60006020828403121561335057600080fd5b600061335e84828501613035565b91505092915050565b600061337383836134a8565b905092915050565b61338481614106565b82525050565b613393816140f4565b82525050565b60006133a482613f57565b6133ae8185613f85565b9350836020820285016133c085613f32565b8060005b858110156133fc57848403895281516133dd8582613367565b94506133e883613f78565b925060208a019950506001810190506133c4565b50829750879550505050505092915050565b61341781614118565b82525050565b600061342882613f62565b6134328185613f96565b9350613442818560208601614189565b61344b81614355565b840191505092915050565b60006134628385613fc3565b935061346f83858461417a565b61347883614355565b840190509392505050565b600061348f8385613fd4565b935061349c83858461417a565b82840190509392505050565b60006134b382613f6d565b6134bd8185613fb2565b93506134cd818560208601614189565b6134d681614355565b840191505092915050565b60006134ec82613f6d565b6134f68185613fc3565b9350613506818560208601614189565b61350f81614355565b840191505092915050565b600061352582613f6d565b61352f8185613fd4565b935061353f818560208601614189565b80840191505092915050565b60008154613558816141bc565b6135628186613fd4565b9450600182166000811461357d576001811461358e576135c1565b60ff198316865281860193506135c1565b61359785613f42565b60005b838110156135b95781548189015260018201915060208101905061359a565b838801955050505b50505092915050565b60006135d7602283613fc3565b91506135e282614366565b604082019050919050565b60006135fa603283613fc3565b9150613605826143b5565b604082019050919050565b600061361d602583613fc3565b915061362882614404565b604082019050919050565b6000613640601c83613fc3565b915061364b82614453565b602082019050919050565b6000613663602483613fc3565b915061366e8261447c565b604082019050919050565b6000613686601983613fc3565b9150613691826144cb565b602082019050919050565b60006136a9601883613fc3565b91506136b4826144f4565b602082019050919050565b60006136cc602c83613fc3565b91506136d78261451d565b604082019050919050565b60006136ef603883613fc3565b91506136fa8261456c565b604082019050919050565b6000613712600183613fd4565b915061371d826145bb565b600182019050919050565b6000613735602a83613fc3565b9150613740826145e4565b604082019050919050565b6000613758602983613fc3565b915061376382614633565b604082019050919050565b600061377b602e83613fc3565b915061378682614682565b604082019050919050565b600061379e600283613fd4565b91506137a9826146d1565b600282019050919050565b60006137c1601283613fc3565b91506137cc826146fa565b602082019050919050565b60006137e4602083613fc3565b91506137ef82614723565b602082019050919050565b6000613807603183613fc3565b91506138128261474c565b604082019050919050565b600061382a602c83613fc3565b91506138358261479b565b604082019050919050565b600061384d602f83613fc3565b9150613858826147ea565b604082019050919050565b6000613870600a83613fd4565b915061387b82614839565b600a82019050919050565b6000613893602183613fc3565b915061389e82614862565b604082019050919050565b60006138b6601d83613fd4565b91506138c1826148b1565b601d82019050919050565b60006138d9600c83613fd4565b91506138e4826148da565b600c82019050919050565b60006138fc600083613fa7565b915061390782614903565b600082019050919050565b600061391f603183613fc3565b915061392a82614906565b604082019050919050565b6000613942606083613fd4565b915061394d82614955565b606082019050919050565b61396181614170565b82525050565b6000613974828486613483565b91508190509392505050565b600061398d828587613483565b915061399882613705565b91506139a4828461354b565b9150819050949350505050565b60006139bd828561351a565b91506139c9828461351a565b91508190509392505050565b60006139e1828661354b565b91506139ed828561351a565b91506139f9828461354b565b9150819050949350505050565b6000613a1182613863565b9150613a1d828661351a565b9150613a2882613935565b9150613a34828561351a565b9150613a3f826138cc565b9150613a4b828461351a565b9150613a5682613791565b9150819050949350505050565b6000613a6e826138a9565b9150613a7a828461351a565b915081905092915050565b6000613a90826138ef565b9150819050919050565b6000602082019050613aaf600083018461338a565b92915050565b6000602082019050613aca600083018461337b565b92915050565b6000608082019050613ae5600083018761338a565b613af2602083018661338a565b613aff6040830185613958565b8181036060830152613b11818461341d565b905095945050505050565b60006020820190508181036000830152613b368184613399565b905092915050565b6000602082019050613b53600083018461340e565b92915050565b60006020820190508181036000830152613b74818486613456565b90509392505050565b60006020820190508181036000830152613b9781846134e1565b905092915050565b60006080820190508181036000830152613bb981876134e1565b9050613bc8602083018661338a565b8181036040830152613bda81856134e1565b90508181036060830152613bee81846134e1565b905095945050505050565b60006040820190508181036000830152613c1381856134e1565b90508181036020830152613c2781846134e1565b90509392505050565b60006020820190508181036000830152613c49816135ca565b9050919050565b60006020820190508181036000830152613c69816135ed565b9050919050565b60006020820190508181036000830152613c8981613610565b9050919050565b60006020820190508181036000830152613ca981613633565b9050919050565b60006020820190508181036000830152613cc981613656565b9050919050565b60006020820190508181036000830152613ce981613679565b9050919050565b60006020820190508181036000830152613d098161369c565b9050919050565b60006020820190508181036000830152613d29816136bf565b9050919050565b60006020820190508181036000830152613d49816136e2565b9050919050565b60006020820190508181036000830152613d6981613728565b9050919050565b60006020820190508181036000830152613d898161374b565b9050919050565b60006020820190508181036000830152613da98161376e565b9050919050565b60006020820190508181036000830152613dc9816137b4565b9050919050565b60006020820190508181036000830152613de9816137d7565b9050919050565b60006020820190508181036000830152613e09816137fa565b9050919050565b60006020820190508181036000830152613e298161381d565b9050919050565b60006020820190508181036000830152613e4981613840565b9050919050565b60006020820190508181036000830152613e6981613886565b9050919050565b60006020820190508181036000830152613e8981613912565b9050919050565b6000602082019050613ea56000830184613958565b92915050565b6000613eb5613ec6565b9050613ec182826141ee565b919050565b6000604051905090565b600067ffffffffffffffff821115613eeb57613eea614326565b5b613ef482614355565b9050602081019050919050565b600067ffffffffffffffff821115613f1c57613f1b614326565b5b613f2582614355565b9050602081019050919050565b6000819050602082019050919050565b60008190508160005260206000209050919050565b600081519050919050565b600081519050919050565b600081519050919050565b6000602082019050919050565b600082825260208201905092915050565b600082825260208201905092915050565b600081905092915050565b600082825260208201905092915050565b600082825260208201905092915050565b600081905092915050565b6000613fea82614170565b9150613ff583614170565b9250827fffffffffffffffffffffffffffffffffffffffffffffffffffffffffffffffff0382111561402a57614029614299565b5b828201905092915050565b600061404082614170565b915061404b83614170565b92508261405b5761405a6142c8565b5b828204905092915050565b600061407182614170565b915061407c83614170565b9250817fffffffffffffffffffffffffffffffffffffffffffffffffffffffffffffffff04831182151516156140b5576140b4614299565b5b828202905092915050565b60006140cb82614170565b91506140d683614170565b9250828210156140e9576140e8614299565b5b828203905092915050565b60006140ff82614150565b9050919050565b600061411182614150565b9050919050565b60008115159050919050565b60007fffffffff0000000000000000000000000000000000000000000000000000000082169050919050565b600073ffffffffffffffffffffffffffffffffffffffff82169050919050565b6000819050919050565b82818337600083830152505050565b60005b838110156141a757808201518184015260208101905061418c565b838111156141b6576000848401525b50505050565b600060028204905060018216806141d457607f821691505b602082108114156141e8576141e76142f7565b5b50919050565b6141f782614355565b810181811067ffffffffffffffff8211171561421657614215614326565b5b80604052505050565b600061422a82614170565b91507fffffffffffffffffffffffffffffffffffffffffffffffffffffffffffffffff82141561425d5761425c614299565b5b600182019050919050565b600061427382614170565b915061427e83614170565b92508261428e5761428d6142c8565b5b828206905092915050565b7f4e487b7100000000000000000000000000000000000000000000000000000000600052601160045260246000fd5b7f4e487b7100000000000000000000000000000000000000000000000000000000600052601260045260246000fd5b7f4e487b7100000000000000000000000000000000000000000000000000000000600052602260045260246000fd5b7f4e487b7100000000000000000000000000000000000000000000000000000000600052604160045260246000fd5b6000601f19601f8301169050919050565b7f4e6f7420656e6f756768204d6174696320746f206275792074686520646f6d6160008201527f696e000000000000000000000000000000000000000000000000000000000000602082015250565b7f4552433732313a207472616e7366657220746f206e6f6e20455243373231526560008201527f63656976657220696d706c656d656e7465720000000000000000000000000000602082015250565b7f4552433732313a207472616e736665722066726f6d20696e636f72726563742060008201527f6f776e6572000000000000000000000000000000000000000000000000000000602082015250565b7f4552433732313a20746f6b656e20616c7265616479206d696e74656400000000600082015250565b7f4552433732313a207472616e7366657220746f20746865207a65726f2061646460008201527f7265737300000000000000000000000000000000000000000000000000000000602082015250565b7f4552433732313a20617070726f766520746f2063616c6c657200000000000000600082015250565b7f4661696c656420746f207769746864726177204d617469630000000000000000600082015250565b7f4552433732313a206f70657261746f7220717565727920666f72206e6f6e657860008201527f697374656e7420746f6b656e0000000000000000000000000000000000000000602082015250565b7f4552433732313a20617070726f76652063616c6c6572206973206e6f74206f7760008201527f6e6572206e6f7220617070726f76656420666f7220616c6c0000000000000000602082015250565b7f2e00000000000000000000000000000000000000000000000000000000000000600082015250565b7f4552433732313a2062616c616e636520717565727920666f7220746865207a6560008201527f726f206164647265737300000000000000000000000000000000000000000000602082015250565b7f4552433732313a206f776e657220717565727920666f72206e6f6e657869737460008201527f656e7420746f6b656e0000000000000000000000000000000000000000000000602082015250565b7f45524337323155524953746f726167653a2055524920736574206f66206e6f6e60008201527f6578697374656e7420746f6b656e000000000000000000000000000000000000602082015250565b7f227d000000000000000000000000000000000000000000000000000000000000600082015250565b7f55736572206973206e6f74206f776e6572210000000000000000000000000000600082015250565b7f4552433732313a206d696e7420746f20746865207a65726f2061646472657373600082015250565b7f45524337323155524953746f726167653a2055524920717565727920666f722060008201527f6e6f6e6578697374656e7420746f6b656e000000000000000000000000000000602082015250565b7f4552433732313a20617070726f76656420717565727920666f72206e6f6e657860008201527f697374656e7420746f6b656e0000000000000000000000000000000000000000602082015250565b7f4552433732314d657461646174613a2055524920717565727920666f72206e6f60008201527f6e6578697374656e7420746f6b656e0000000000000000000000000000000000602082015250565b7f7b226e616d65223a202200000000000000000000000000000000000000000000600082015250565b7f4552433732313a20617070726f76616c20746f2063757272656e74206f776e6560008201527f7200000000000000000000000000000000000000000000000000000000000000602082015250565b7f646174613a6170706c69636174696f6e2f6a736f6e3b6261736536342c000000600082015250565b7f222c226c656e677468223a220000000000000000000000000000000000000000600082015250565b50565b7f4552433732313a207472616e736665722063616c6c6572206973206e6f74206f60008201527f776e6572206e6f7220617070726f766564000000000000000000000000000000602082015250565b7f222c20226465736372697074696f6e223a20224120646f6d61696e207379737460008201527f656d20666f72204379626572206e616d652073657276696365222c2022696d6160208201527f6765223a2022646174613a696d6167652f7376672b786d6c3b6261736536342c604082015250565b6149d3816140f4565b81146149de57600080fd5b50565b6149ea81614118565b81146149f557600080fd5b50565b614a0181614124565b8114614a0c57600080fd5b50565b614a1881614170565b8114614a2357600080fd5b5056fe2573206861732072656769737465726564206120646f6d61696e21206279206e616d652025732e25730a2d2d2d2d2d2d2d2d2d2d2d2d2d2d2d2d2d2d2d2d2d2d2d2d2d2d2d2d2d2d2d2d2d2d2d2d2d2d2d2d2d2d2d2d2d2d2d2d2d2d2d2d2d2d2d2d2d2d2d2d2d2d2d2d2d2d2d2d2d2d2d2d2d2d2d2d2d2d2d2d2d2d2d2d2d2d2d2d2d2d2d2d2d2d2d2d2d2d2d2d2d2d2d2d2d2d2d2d2d2d2d2d0a4142434445464748494a4b4c4d4e4f505152535455565758595a6162636465666768696a6b6c6d6e6f707172737475767778797a303132333435363738392b2fa264697066735822122042e7f120d8f340d77e7f5170eee693e6e3dc9fbdc672aa3948f66b81cb14749264736f6c634300080400333c73766720786d6c6e733d22687474703a2f2f7777772e77332e6f72672f323030302f737667222076657273696f6e3d22312e312220786d6c6e733a786c696e6b3d22687474703a2f2f7777772e77332e6f72672f313939392f786c696e6b2220786d6c6e733a7376676a733d22687474703a2f2f7376676a732e636f6d2f7376676a73222077696474683d2232373022206865696768743d2232373022207072657365727665417370656374526174696f3d226e6f6e65222076696577426f783d223020302032373020323730223e203c67206d61736b3d2275726c282671756f743b235376676a734d61736b313031352671756f743b29222066696c6c3d226e6f6e65223e203c726563742077696474683d2232373022206865696768743d223237302220783d22302220793d2230222066696c6c3d2223306532613437223e3c2f726563743e203c7061746820643d224d302c3130382e3334384332332e33312c3131312e3236322c34382e3633332c3131392e3036332c36392e30342c3130372e3432384338392e3630322c39352e3730352c39392e3633382c37312e3131362c3130352e3531392c34382e313839433131302e38332c32372e3438342c3130342e3336352c362e3536342c3130302e3239382c2d31342e3432314339362e3433342c2d33342e3336312c39352e3639382c2d35362e3034372c38322e3335322c2d37312e3335384336392e30322c2d38362e3635332c34382e3432362c2d39332e3335372c32382e34342c2d39362e38353643392e3838352c2d3130302e3130352c2d372e3935342c2d39332e3432342c2d32362e3535312c2d39302e343236432d34382e3230392c2d38362e3933352c2d37332e3031342c2d39312e3934322c2d38392e3738352c2d37372e373939432d3130362e3937312c2d36332e3330352c2d3131302e3131322c2d33382e3532332c2d3131342e3239312c2d31362e343333432d3131382e3633342c362e3532332c2d3132352e3037362c33312e3436352c2d3131342e3338352c35322e323338432d3130332e3739312c37322e3832332c2d37392e3535352c38312e3235322c2d35382e37372c39312e343438432d34302e3039312c3130302e3631312c2d32302e3634342c3130352e3736372c302c3130382e333438222066696c6c3d2223306232323339223e3c2f706174683e203c7061746820643d224d323730203430322e3238373030303030303030303033433239342e393733203430362e343536203332312e3039303030303030303030303033203339362e313933203334312e323836203338302e393233203336302e3738343939393939393939393937203336362e3138203337332e363739203334332e363535203337392e303736203331392e383133203338332e393436203239382e33203337342e383336203237372e3131203336392e3634203235352e363734203336342e393534203233362e333339203336322e323635203231362e333239203335302e313636203230302e353336203333372e3633203138342e313732203331392e383235203137332e3138323030303030303030303032203330302e363439203136352e363138203238302e303832203135372e353036203235382e313436203135312e353139203233362e3433303939393939393939393938203135352e363735203231332e353736203136302e303439203139302e313232203137302e313736203137362e383735203138392e3330373030303030303030303032203136332e3937313939393939393939393938203230372e393431203136362e3537393939393939393939393938203233322e363132203136372e343736203235352e3235393030303030303030303031203136382e3234303939393939393939393939203237342e353936203137332e3938333939393939393939393938203239322e353739203138312e363636203331302e333431203138392e343937203332382e343438203139382e3835383939393939393939393938203334352e323034203231322e353237203335392e3433203232392e343236203337372e3032203234352e393431203339382e323730393939393939393939393620323730203430322e3238373030303030303030303033222066696c6c3d2223313133323535223e3c2f706174683e203c2f673e203c646566733e203c6d61736b2069643d225376676a734d61736b31303135223e203c726563742077696474683d2232373022206865696768743d22323730222066696c6c3d2223666666666666223e3c2f726563743e203c2f6d61736b3e203c2f646566733e203c7465787420783d2233322e352220793d223233312220666f6e742d73697a653d223237222066696c6c3d22236666662220666f6e742d66616d696c793d22506c7573204a616b617274612053616e732c44656a6156752053616e732c4e6f746f20436f6c6f7220456d6f6a692c4170706c6520436f6c6f7220456d6f6a692c73616e732d73657269662220666f6e742d7765696768743d22626f6c64223e",
  "linkReferences": {},
  "deployedLinkReferences": {}
}